{
  "contractName": "GameShop",
  "abi": [
    {
      "inputs": [],
      "stateMutability": "nonpayable",
      "type": "constructor"
    },
    {
      "anonymous": false,
      "inputs": [
        {
          "indexed": true,
          "internalType": "address",
          "name": "buyer",
          "type": "address"
        },
        {
          "indexed": false,
          "internalType": "uint256",
          "name": "amount",
          "type": "uint256"
        }
      ],
      "name": "Purchase",
      "type": "event"
    },
    {
      "anonymous": false,
      "inputs": [
        {
          "indexed": true,
          "internalType": "address",
          "name": "seller",
          "type": "address"
        },
        {
          "indexed": false,
          "internalType": "uint256",
          "name": "amount",
          "type": "uint256"
        }
      ],
      "name": "Sale",
      "type": "event"
    },
    {
      "inputs": [],
      "name": "purchase",
      "outputs": [],
      "stateMutability": "payable",
      "type": "function",
      "payable": true
    },
    {
      "inputs": [
        {
          "internalType": "address payable",
          "name": "seller",
          "type": "address"
        },
        {
          "internalType": "uint256",
          "name": "amount",
          "type": "uint256"
        }
      ],
      "name": "sell",
      "outputs": [],
      "stateMutability": "nonpayable",
      "type": "function"
    },
    {
      "inputs": [],
      "name": "getBalance",
      "outputs": [
        {
          "internalType": "uint256",
          "name": "",
          "type": "uint256"
        }
      ],
      "stateMutability": "view",
      "type": "function",
      "constant": true
    }
  ],
  "bytecode": "0x608060405234801561001057600080fd5b50336000806101000a81548173ffffffffffffffffffffffffffffffffffffffff021916908373ffffffffffffffffffffffffffffffffffffffff160217905550610523806100606000396000f3fe6080604052600436106100345760003560e01c806312065fe01461003957806364edfbf0146100645780636c197ff51461006e575b600080fd5b34801561004557600080fd5b5061004e610097565b60405161005b9190610457565b60405180910390f35b61006c61009f565b005b34801561007a57600080fd5b50610095600480360381019061009091906102c6565b610132565b005b600047905090565b600034116100e2576040517f08c379a00000000000000000000000000000000000000000000000000000000081526004016100d990610417565b60405180910390fd5b3373ffffffffffffffffffffffffffffffffffffffff167f2499a5330ab0979cc612135e7883ebc3cd5c9f7a8508f042540c34723348f632346040516101289190610457565b60405180910390a2565b60008054906101000a900473ffffffffffffffffffffffffffffffffffffffff1673ffffffffffffffffffffffffffffffffffffffff163373ffffffffffffffffffffffffffffffffffffffff16146101c0576040517f08c379a00000000000000000000000000000000000000000000000000000000081526004016101b7906103f7565b60405180910390fd5b80471015610203576040517f08c379a00000000000000000000000000000000000000000000000000000000081526004016101fa90610437565b60405180910390fd5b8173ffffffffffffffffffffffffffffffffffffffff166108fc829081150290604051600060405180830381858888f19350505050158015610249573d6000803e3d6000fd5b508173ffffffffffffffffffffffffffffffffffffffff167fc6851889326b4ff916523ef06f539b4cf0b81d78fc6e0f97c30e6223d1831990826040516102909190610457565b60405180910390a25050565b6000813590506102ab816104bf565b92915050565b6000813590506102c0816104d6565b92915050565b600080604083850312156102d957600080fd5b60006102e78582860161029c565b92505060206102f8858286016102b1565b9150509250929050565b600061030f602383610472565b91507f4f6e6c79207468652073686f70206f776e65722063616e2073656c6c2069746560008301527f6d732e00000000000000000000000000000000000000000000000000000000006020830152604082019050919050565b6000610375601e83610472565b91507f596f75206d7573742073656e642045544820746f2070757263686173652e00006000830152602082019050919050565b60006103b5601e83610472565b91507f53686f7020646f6573206e6f74206861766520656e6f756768204554482e00006000830152602082019050919050565b6103f1816104b5565b82525050565b6000602082019050818103600083015261041081610302565b9050919050565b6000602082019050818103600083015261043081610368565b9050919050565b60006020820190508181036000830152610450816103a8565b9050919050565b600060208201905061046c60008301846103e8565b92915050565b600082825260208201905092915050565b600061048e82610495565b9050919050565b600073ffffffffffffffffffffffffffffffffffffffff82169050919050565b6000819050919050565b6104c881610483565b81146104d357600080fd5b50565b6104df816104b5565b81146104ea57600080fd5b5056fea26469706673582212200951cc385d406434740160143ece36ecccc87e050d354b8856a4f7e3e73e830564736f6c63430008000033",
  "immutableReferences": {},
  "source": "// SPDX-License-Identifier: MIT\r\npragma solidity ^0.8.0;\r\n\r\ncontract GameShop {\r\n    address owner;\r\n\r\n    event Purchase(address indexed buyer, uint amount);\r\n    event Sale(address indexed seller, uint amount);\r\n\r\n    constructor() {\r\n        owner = msg.sender;\r\n    }\r\n\r\n    // Function for purchasing items (sending ETH to the shop)\r\n    function purchase() external payable {\r\n        require(msg.value > 0, \"You must send ETH to purchase.\");\r\n        emit Purchase(msg.sender, msg.value);\r\n    }\r\n\r\n    // Function for selling items (receiving ETH from the shop)\r\n    function sell(address payable seller, uint amount) external {\r\n        require(msg.sender == owner, \"Only the shop owner can sell items.\");\r\n        require(address(this).balance >= amount, \"Shop does not have enough ETH.\");\r\n        seller.transfer(amount);\r\n        emit Sale(seller, amount);\r\n    }\r\n\r\n    // Function to get the contract's ETH balance (for the shop)\r\n    function getBalance() public view returns (uint) {\r\n        return address(this).balance;\r\n    }\r\n}\r\n",
  "sourcePath": "C:\\Users\\marti\\Documents\\projects\\eth-PM-test\\contracts\\GameShop.sol",
  "compiler": {
    "name": "solc",
    "version": "0.8.0+commit.c7dfd78e.Emscripten.clang"
  },
  "schemaVersion": "3.4.16",
  "updatedAt": "2024-03-27T09:46:30.756Z",
  "networkType": "ethereum",
  "devdoc": {
    "kind": "dev",
    "methods": {},
    "version": 1
  },
  "userdoc": {
    "kind": "user",
    "methods": {},
    "version": 1
  }
}